{
  "contractName": "Products",
  "abi": [
    {
      "inputs": [],
      "payable": false,
      "stateMutability": "nonpayable",
      "type": "constructor"
    },
    {
      "constant": false,
      "inputs": [
        {
          "internalType": "string",
          "name": "search_hash",
          "type": "string"
        },
        {
          "internalType": "uint256",
          "name": "discount",
          "type": "uint256"
        }
      ],
      "name": "OnSaleProduct",
      "outputs": [
        {
          "internalType": "bool",
          "name": "",
          "type": "bool"
        }
      ],
      "payable": false,
      "stateMutability": "nonpayable",
      "type": "function"
    },
    {
      "constant": false,
      "inputs": [
        {
          "internalType": "string",
          "name": "_name",
          "type": "string"
        },
        {
          "internalType": "string",
          "name": "_brand",
          "type": "string"
        },
        {
          "internalType": "string",
          "name": "_country",
          "type": "string"
        },
        {
          "internalType": "string",
          "name": "_unique_hash",
          "type": "string"
        },
        {
          "internalType": "uint256",
          "name": "price",
          "type": "uint256"
        },
        {
          "internalType": "uint256",
          "name": "pieces",
          "type": "uint256"
        }
      ],
      "name": "AddProduct",
      "outputs": [
        {
          "internalType": "bool",
          "name": "",
          "type": "bool"
        }
      ],
      "payable": false,
      "stateMutability": "nonpayable",
      "type": "function"
    },
    {
      "constant": false,
      "inputs": [
        {
          "internalType": "uint256",
          "name": "_numberOrder",
          "type": "uint256"
        }
      ],
      "name": "RefundProduct",
      "outputs": [
        {
          "internalType": "bool",
          "name": "",
          "type": "bool"
        }
      ],
      "payable": true,
      "stateMutability": "payable",
      "type": "function"
    },
    {
      "constant": false,
      "inputs": [
        {
          "internalType": "string",
          "name": "_unique_hash",
          "type": "string"
        }
      ],
      "name": "RemoveProduct",
      "outputs": [
        {
          "internalType": "bool",
          "name": "",
          "type": "bool"
        }
      ],
      "payable": false,
      "stateMutability": "nonpayable",
      "type": "function"
    },
    {
      "constant": false,
      "inputs": [
        {
          "internalType": "string",
          "name": "_unique_hash",
          "type": "string"
        }
      ],
      "name": "RemoveReportedProduct",
      "outputs": [
        {
          "internalType": "bool",
          "name": "",
          "type": "bool"
        }
      ],
      "payable": false,
      "stateMutability": "nonpayable",
      "type": "function"
    },
    {
      "constant": false,
      "inputs": [
        {
          "internalType": "string",
          "name": "old_unique_hash",
          "type": "string"
        },
        {
          "internalType": "string",
          "name": "new_name",
          "type": "string"
        },
        {
          "internalType": "string",
          "name": "new_brand",
          "type": "string"
        },
        {
          "internalType": "string",
          "name": "new_country",
          "type": "string"
        },
        {
          "internalType": "string",
          "name": "new_unique_hash",
          "type": "string"
        },
        {
          "internalType": "uint256",
          "name": "new_price",
          "type": "uint256"
        },
        {
          "internalType": "uint256",
          "name": "new_pieces",
          "type": "uint256"
        }
      ],
      "name": "UpdateProduct",
      "outputs": [
        {
          "internalType": "bool",
          "name": "",
          "type": "bool"
        }
      ],
      "payable": false,
      "stateMutability": "nonpayable",
      "type": "function"
    },
    {
      "constant": true,
      "inputs": [
        {
          "internalType": "string",
          "name": "_unique_hash",
          "type": "string"
        }
      ],
      "name": "SearchReportedProducts",
      "outputs": [
        {
          "internalType": "bool",
          "name": "",
          "type": "bool"
        }
      ],
      "payable": false,
      "stateMutability": "view",
      "type": "function"
    },
    {
      "constant": true,
      "inputs": [
        {
          "internalType": "string",
          "name": "_name",
          "type": "string"
        },
        {
          "internalType": "string",
          "name": "_brand",
          "type": "string"
        },
        {
          "internalType": "string",
          "name": "_country",
          "type": "string"
        },
        {
          "internalType": "string",
          "name": "_unique_hash",
          "type": "string"
        }
      ],
      "name": "SearchProduct",
      "outputs": [
        {
          "internalType": "bool",
          "name": "",
          "type": "bool"
        },
        {
          "components": [
            {
              "internalType": "string",
              "name": "name",
              "type": "string"
            },
            {
              "internalType": "string",
              "name": "brand",
              "type": "string"
            },
            {
              "internalType": "string",
              "name": "country",
              "type": "string"
            },
            {
              "internalType": "string",
              "name": "unique_hash",
              "type": "string"
            },
            {
              "internalType": "uint256",
              "name": "price",
              "type": "uint256"
            },
            {
              "internalType": "uint256",
              "name": "pieces",
              "type": "uint256"
            }
          ],
          "internalType": "struct Products.Product[]",
          "name": "",
          "type": "tuple[]"
        }
      ],
      "payable": false,
      "stateMutability": "view",
      "type": "function"
    },
    {
      "constant": false,
      "inputs": [
        {
          "internalType": "string",
          "name": "_unique_hash",
          "type": "string"
        }
      ],
      "name": "BuyProduct",
      "outputs": [
        {
          "internalType": "bool",
          "name": "",
          "type": "bool"
        }
      ],
      "payable": true,
      "stateMutability": "payable",
      "type": "function"
    },
    {
      "constant": true,
      "inputs": [
        {
          "internalType": "address payable",
          "name": "_buyer_hash",
          "type": "address"
        }
      ],
      "name": "SearchPastOrders",
      "outputs": [
        {
          "internalType": "bool",
          "name": "",
          "type": "bool"
        },
        {
          "components": [
            {
              "internalType": "string",
              "name": "unique_hash",
              "type": "string"
            },
            {
              "internalType": "address payable",
              "name": "buyer_hash",
              "type": "address"
            },
            {
              "internalType": "uint256",
              "name": "numberOrder",
              "type": "uint256"
            }
          ],
          "internalType": "struct Products.BoughtProduct[]",
          "name": "",
          "type": "tuple[]"
        }
      ],
      "payable": false,
      "stateMutability": "view",
      "type": "function"
    },
    {
      "constant": false,
      "inputs": [
        {
          "internalType": "string",
          "name": "_unique_hash",
          "type": "string"
        }
      ],
      "name": "ReportProduct",
      "outputs": [
        {
          "internalType": "bool",
          "name": "",
          "type": "bool"
        }
      ],
      "payable": false,
      "stateMutability": "nonpayable",
      "type": "function"
    }
  ],
  "bytecode": "0x60806040526000600455734a0cc881d57b786e7f0b4aa0ac6e057f415648e6600560006101000a81548173ffffffffffffffffffffffffffffffffffffffff021916908373ffffffffffffffffffffffffffffffffffffffff1602179055503480156200006b57600080fd5b50600560009054906101000a900473ffffffffffffffffffffffffffffffffffffffff166000806101000a81548173ffffffffffffffffffffffffffffffffffffffff021916908373ffffffffffffffffffffffffffffffffffffffff160217905550620000d8620002a5565b6040518060c001604052806040518060400160405280600781526020017f526574726f20310000000000000000000000000000000000000000000000000081525081526020016040518060400160405280600681526020017f4a6f7264616e000000000000000000000000000000000000000000000000000081525081526020016040518060400160405280600781526020017f536f6d616c69610000000000000000000000000000000000000000000000000081525081526020016040518060400160405280600981526020017f34333235333931333400000000000000000000000000000000000000000000008152508152602001600a81526020016005815250905060028190806001815401808255809150509060018203906000526020600020906006020160009091929091909150600082015181600001908051906020019062000229929190620002db565b50602082015181600101908051906020019062000248929190620002db565b50604082015181600201908051906020019062000267929190620002db565b50606082015181600301908051906020019062000286929190620002db565b506080820151816004015560a08201518160050155505050506200038a565b6040518060c001604052806060815260200160608152602001606081526020016060815260200160008152602001600081525090565b828054600181600116156101000203166002900490600052602060002090601f016020900481019282601f106200031e57805160ff19168380011785556200034f565b828001600101855582156200034f579182015b828111156200034e57825182559160200191906001019062000331565b5b5090506200035e919062000362565b5090565b6200038791905b808211156200038357600081600090555060010162000369565b5090565b90565b6133ff806200039a6000396000f3fe60806040526004361061009c5760003560e01c80639f441ffe116100645780639f441ffe146101c7578063a5a307c3146101f7578063d7a7ca6f14610234578063f2d4347414610271578063fd17aaba146102ae578063ff84ca72146102eb5761009c565b8063414de45d146100a15780635581d8b7146100df57806364d36c211461011c578063693f6ef31461015a5780637c2319641461018a575b600080fd5b3480156100ad57600080fd5b506100c860048036036100c39190810190612b24565b610328565b6040516100d6929190613196565b60405180910390f35b3480156100eb57600080fd5b5061010660048036036101019190810190612e50565b61055f565b604051610113919061317b565b60405180910390f35b34801561012857600080fd5b50610143600480360361013e9190810190612b8e565b610749565b6040516101519291906131c6565b60405180910390f35b610174600480360361016f9190810190612b4d565b610e4e565b604051610181919061317b565b60405180910390f35b34801561019657600080fd5b506101b160048036036101ac9190810190612b4d565b611150565b6040516101be919061317b565b60405180910390f35b6101e160048036036101dc9190810190612ea4565b611376565b6040516101ee919061317b565b60405180910390f35b34801561020357600080fd5b5061021e60048036036102199190810190612c51565b611847565b60405161022b919061317b565b60405180910390f35b34801561024057600080fd5b5061025b60048036036102569190810190612b4d565b611b94565b604051610268919061317b565b60405180910390f35b34801561027d57600080fd5b5061029860048036036102939190810190612b4d565b611eab565b6040516102a5919061317b565b60405180910390f35b3480156102ba57600080fd5b506102d560048036036102d09190810190612b4d565b6120cf565b6040516102e2919061317b565b60405180910390f35b3480156102f757600080fd5b50610312600480360361030d9190810190612d67565b6121c4565b60405161031f919061317b565b60405180910390f35b600060606000809050606060018054905060405190808252806020026020018201604052801561037257816020015b61035f6125c8565b8152602001906001900390816103575790505b50905060008090505b600180549050811015610551576001818154811061039557fe5b906000526020600020906003020160010160009054906101000a900473ffffffffffffffffffffffffffffffffffffffff1673ffffffffffffffffffffffffffffffffffffffff168673ffffffffffffffffffffffffffffffffffffffff1614156105445760006001828154811061040957fe5b9060005260206000209060030201905080604051806060016040529081600082018054600181600116156101000203166002900480601f0160208091040260200160405190810160405280929190818152602001828054600181600116156101000203166002900480156104be5780601f10610493576101008083540402835291602001916104be565b820191906000526020600020905b8154815290600101906020018083116104a157829003601f168201915b505050505081526020016001820160009054906101000a900473ffffffffffffffffffffffffffffffffffffffff1673ffffffffffffffffffffffffffffffffffffffff1673ffffffffffffffffffffffffffffffffffffffff16815260200160028201548152505083838151811061053357fe5b602002602001018190525060019350505b808060010191505061037b565b508181935093505050915091565b60008060009054906101000a900473ffffffffffffffffffffffffffffffffffffffff1673ffffffffffffffffffffffffffffffffffffffff163373ffffffffffffffffffffffffffffffffffffffff16146105ba57600080fd5b60008090505b60028054905081101561073d5761068d600282815481106105dd57fe5b90600052602060002090600602016003018054600181600116156101000203166002900480601f0160208091040260200160405190810160405280929190818152602001828054600181600116156101000203166002900480156106825780601f1061065757610100808354040283529160200191610682565b820191906000526020600020905b81548152906001019060200180831161066557829003601f168201915b50505050508561256f565b156107305761072884604051806020016040528060008152506040518060200160405280600081525060405180602001604052806000815250604051806020016040528060008152506064600288815481106106e557fe5b9060005260206000209060060201600401548a028161070057fe5b046002888154811061070e57fe5b906000526020600020906006020160040154036000611847565b915050610743565b80806001019150506105c0565b50600090505b92915050565b600060608060028054905060405190808252806020026020018201604052801561078d57816020015b61077a6125ff565b8152602001906001900390816107725790505b5090506000809050600080905060008090505b600280549050811015610e3b576107c68a6040518060200160405280600081525061256f565b8061088d575061088c8a600283815481106107dd57fe5b90600052602060002090600602016000018054600181600116156101000203166002900480601f0160208091040260200160405190810160405280929190818152602001828054600181600116156101000203166002900480156108825780601f1061085757610100808354040283529160200191610882565b820191906000526020600020905b81548152906001019060200180831161086557829003601f168201915b505050505061256f565b5b15610e2e576108ab896040518060200160405280600081525061256f565b80610972575061097189600283815481106108c257fe5b90600052602060002090600602016001018054600181600116156101000203166002900480601f0160208091040260200160405190810160405280929190818152602001828054600181600116156101000203166002900480156109675780601f1061093c57610100808354040283529160200191610967565b820191906000526020600020905b81548152906001019060200180831161094a57829003601f168201915b505050505061256f565b5b15610e2d57610990886040518060200160405280600081525061256f565b80610a575750610a5688600283815481106109a757fe5b90600052602060002090600602016002018054600181600116156101000203166002900480601f016020809104026020016040519081016040528092919081815260200182805460018160011615610100020316600290048015610a4c5780601f10610a2157610100808354040283529160200191610a4c565b820191906000526020600020905b815481529060010190602001808311610a2f57829003601f168201915b505050505061256f565b5b15610e2c57610a75876040518060200160405280600081525061256f565b80610b3c5750610b3b8760028381548110610a8c57fe5b90600052602060002090600602016003018054600181600116156101000203166002900480601f016020809104026020016040519081016040528092919081815260200182805460018160011615610100020316600290048015610b315780601f10610b0657610100808354040283529160200191610b31565b820191906000526020600020905b815481529060010190602001808311610b1457829003601f168201915b505050505061256f565b5b15610e2b57600060028281548110610b5057fe5b90600052602060002090600602019050806040518060c0016040529081600082018054600181600116156101000203166002900480601f016020809104026020016040519081016040528092919081815260200182805460018160011615610100020316600290048015610c055780601f10610bda57610100808354040283529160200191610c05565b820191906000526020600020905b815481529060010190602001808311610be857829003601f168201915b50505050508152602001600182018054600181600116156101000203166002900480601f016020809104026020016040519081016040528092919081815260200182805460018160011615610100020316600290048015610ca75780601f10610c7c57610100808354040283529160200191610ca7565b820191906000526020600020905b815481529060010190602001808311610c8a57829003601f168201915b50505050508152602001600282018054600181600116156101000203166002900480601f016020809104026020016040519081016040528092919081815260200182805460018160011615610100020316600290048015610d495780601f10610d1e57610100808354040283529160200191610d49565b820191906000526020600020905b815481529060010190602001808311610d2c57829003601f168201915b50505050508152602001600382018054600181600116156101000203166002900480601f016020809104026020016040519081016040528092919081815260200182805460018160011615610100020316600290048015610deb5780601f10610dc057610100808354040283529160200191610deb565b820191906000526020600020905b815481529060010190602001808311610dce57829003601f168201915b5050505050815260200160048201548152602001600582015481525050858581518110610e1457fe5b602002602001018190525083600101935060019250505b5b5b5b80806001019150506107a0565b5080839450945050505094509492505050565b600080600090505b60028054905081101561114557610f238360028381548110610e7457fe5b90600052602060002090600602016003018054600181600116156101000203166002900480601f016020809104026020016040519081016040528092919081815260200182805460018160011615610100020316600290048015610f195780601f10610eee57610100808354040283529160200191610f19565b820191906000526020600020905b815481529060010190602001808311610efc57829003601f168201915b505050505061256f565b1561113857600060028281548110610f3757fe5b9060005260206000209060060201600501541115611137573373ffffffffffffffffffffffffffffffffffffffff1631341115610f7357600080fd5b600160028281548110610f8257fe5b9060005260206000209060060201600501540360028281548110610fa257fe5b906000526020600020906006020160050181905550600560009054906101000a900473ffffffffffffffffffffffffffffffffffffffff1673ffffffffffffffffffffffffffffffffffffffff166108fc6002838154811061100057fe5b9060005260206000209060060201600401549081150290604051600060405180830381858888f1935050505015801561103d573d6000803e3d6000fd5b50600460008154809291906001019190505550611058612635565b60405180606001604052808581526020013373ffffffffffffffffffffffffffffffffffffffff16815260200160045481525090506001819080600181540180825580915050906001820390600052602060002090600302016000909192909190915060008201518160000190805190602001906110d792919061266c565b5060208201518160010160006101000a81548173ffffffffffffffffffffffffffffffffffffffff021916908373ffffffffffffffffffffffffffffffffffffffff1602179055506040820151816002015550505060019250505061114b565b5b8080600101915050610e56565b50600090505b919050565b60008060009054906101000a900473ffffffffffffffffffffffffffffffffffffffff1673ffffffffffffffffffffffffffffffffffffffff163373ffffffffffffffffffffffffffffffffffffffff16146111ab57600080fd5b6000809050600080905060008090505b60038054905081101561129b5761128185600383815481106111d957fe5b906000526020600020018054600181600116156101000203166002900480601f0160208091040260200160405190810160405280929190818152602001828054600181600116156101000203166002900480156112775780601f1061124c57610100808354040283529160200191611277565b820191906000526020600020905b81548152906001019060200180831161125a57829003601f168201915b505050505061256f565b1561128e57809250600191505b80806001019150506111bb565b5060011515811515141561136a5760008290505b60016003805490500381101561131d57600360018201815481106112cf57fe5b90600052602060002001600382815481106112e657fe5b90600052602060002001908054600181600116156101000203166002900461130f9291906126ec565b5080806001019150506112af565b5060036001600380549050038154811061133357fe5b9060005260206000200160006113499190612773565b600380548091906001900361135e91906127bb565b50600192505050611371565b6000925050505b919050565b60008060009054906101000a900473ffffffffffffffffffffffffffffffffffffffff1673ffffffffffffffffffffffffffffffffffffffff163373ffffffffffffffffffffffffffffffffffffffff16146113d157600080fd5b600080905060008090506000809050600080905060008090505b600180549050811015611433576001818154811061140557fe5b90600052602060002090600302016002015487141561142657809350600191505b80806001019150506113eb565b5060008090505b6002805490508110156115d7576115bd6001858154811061145757fe5b90600052602060002090600302016000018054600181600116156101000203166002900480601f0160208091040260200160405190810160405280929190818152602001828054600181600116156101000203166002900480156114fc5780601f106114d1576101008083540402835291602001916114fc565b820191906000526020600020905b8154815290600101906020018083116114df57829003601f168201915b50505050506002838154811061150e57fe5b90600052602060002090600602016003018054600181600116156101000203166002900480601f0160208091040260200160405190810160405280929190818152602001828054600181600116156101000203166002900480156115b35780601f10611588576101008083540402835291602001916115b3565b820191906000526020600020905b81548152906001019060200180831161159657829003601f168201915b505050505061256f565b156115ca57809450600192505b808060010191505061143a565b50600115158215151480156115f0575060011515811515145b15611839573373ffffffffffffffffffffffffffffffffffffffff163134111561161957600080fd5b6001838154811061162657fe5b906000526020600020906003020160010160009054906101000a900473ffffffffffffffffffffffffffffffffffffffff1673ffffffffffffffffffffffffffffffffffffffff166108fc6002868154811061167e57fe5b9060005260206000209060060201600401549081150290604051600060405180830381858888f193505050501580156116bb573d6000803e3d6000fd5b5060008390505b60018080549050038110156117b2576001808201815481106116e057fe5b9060005260206000209060030201600182815481106116fb57fe5b9060005260206000209060030201600082018160000190805460018160011615610100020316600290046117309291906127e7565b506001820160009054906101000a900473ffffffffffffffffffffffffffffffffffffffff168160010160006101000a81548173ffffffffffffffffffffffffffffffffffffffff021916908373ffffffffffffffffffffffffffffffffffffffff1602179055506002820154816002015590505080806001019150506116c2565b50600180808054905003815481106117c657fe5b9060005260206000209060030201600080820160006117e59190612773565b6001820160006101000a81549073ffffffffffffffffffffffffffffffffffffffff021916905560028201600090555050600180548091906001900361182b919061286e565b506001945050505050611842565b60009450505050505b919050565b60008060009054906101000a900473ffffffffffffffffffffffffffffffffffffffff1673ffffffffffffffffffffffffffffffffffffffff163373ffffffffffffffffffffffffffffffffffffffff16146118a257600080fd5b60008090505b600280549050811015611b835761197589600283815481106118c657fe5b90600052602060002090600602016003018054600181600116156101000203166002900480601f01602080910402602001604051908101604052809291908181526020018280546001816001161561010002031660029004801561196b5780601f106119405761010080835404028352916020019161196b565b820191906000526020600020905b81548152906001019060200180831161194e57829003601f168201915b505050505061256f565b15611b7657611993886040518060200160405280600081525061256f565b6119cb5787600282815481106119a557fe5b906000526020600020906006020160000190805190602001906119c99291906128a0565b505b6119e4876040518060200160405280600081525061256f565b611a1c5786600282815481106119f657fe5b90600052602060002090600602016001019080519060200190611a1a9291906128a0565b505b611a35866040518060200160405280600081525061256f565b611a6d578560028281548110611a4757fe5b90600052602060002090600602016002019080519060200190611a6b9291906128a0565b505b611a86856040518060200160405280600081525061256f565b611abe578460028281548110611a9857fe5b90600052602060002090600602016003019080519060200190611abc9291906128a0565b505b60028181548110611acb57fe5b9060005260206000209060060201600401548414158015611aec5750600084115b15611b15578360028281548110611aff57fe5b9060005260206000209060060201600401819055505b60028181548110611b2257fe5b9060005260206000209060060201600501548314158015611b435750600083115b15611b6c578260028281548110611b5657fe5b9060005260206000209060060201600501819055505b6001915050611b89565b80806001019150506118a8565b50600090505b979650505050505050565b60008060009054906101000a900473ffffffffffffffffffffffffffffffffffffffff1673ffffffffffffffffffffffffffffffffffffffff163373ffffffffffffffffffffffffffffffffffffffff1614611bef57600080fd5b6000809050600080905060008090505b600280549050811015611ce657611ccc8560028381548110611c1d57fe5b90600052602060002090600602016003018054600181600116156101000203166002900480601f016020809104026020016040519081016040528092919081815260200182805460018160011615610100020316600290048015611cc25780601f10611c9757610100808354040283529160200191611cc2565b820191906000526020600020905b815481529060010190602001808311611ca557829003601f168201915b505050505061256f565b15611cd957809250600191505b8080600101915050611bff565b50600115158115151415611e9f5760008290505b600160028054905003811015611e075760026001820181548110611d1a57fe5b906000526020600020906006020160028281548110611d3557fe5b906000526020600020906006020160008201816000019080546001816001161561010002031660029004611d6a9291906127e7565b5060018201816001019080546001816001161561010002031660029004611d929291906127e7565b5060028201816002019080546001816001161561010002031660029004611dba9291906127e7565b5060038201816003019080546001816001161561010002031660029004611de29291906127e7565b5060048201548160040155600582015481600501559050508080600101915050611cfa565b50600260016002805490500381548110611e1d57fe5b906000526020600020906006020160008082016000611e3c9190612773565b600182016000611e4c9190612773565b600282016000611e5c9190612773565b600382016000611e6c9190612773565b6004820160009055600582016000905550506002805480919060019003611e939190612920565b50600192505050611ea6565b6000925050505b919050565b600080600090505b600280549050811015611f9c57611f808360028381548110611ed157fe5b90600052602060002090600602016003018054600181600116156101000203166002900480601f016020809104026020016040519081016040528092919081815260200182805460018160011615610100020316600290048015611f765780601f10611f4b57610100808354040283529160200191611f76565b820191906000526020600020905b815481529060010190602001808311611f5957829003601f168201915b505050505061256f565b15611f8f5760009150506120ca565b8080600101915050611eb3565b5060008090505b600380549050811015612085576120698360038381548110611fc157fe5b906000526020600020018054600181600116156101000203166002900480601f01602080910402602001604051908101604052809291908181526020018280546001816001161561010002031660029004801561205f5780601f106120345761010080835404028352916020019161205f565b820191906000526020600020905b81548152906001019060200180831161204257829003601f168201915b505050505061256f565b156120785760009150506120ca565b8080600101915050611fa3565b5060038290806001815401808255809150509060018203906000526020600020016000909192909190915090805190602001906120c39291906128a0565b5050600190505b919050565b600080600090505b6003805490508110156121b95761219d600382815481106120f457fe5b906000526020600020018054600181600116156101000203166002900480601f0160208091040260200160405190810160405280929190818152602001828054600181600116156101000203166002900480156121925780601f1061216757610100808354040283529160200191612192565b820191906000526020600020905b81548152906001019060200180831161217557829003601f168201915b50505050508461256f565b156121ac5760019150506121bf565b80806001019150506120d7565b50600090505b919050565b60008060009054906101000a900473ffffffffffffffffffffffffffffffffffffffff1673ffffffffffffffffffffffffffffffffffffffff163373ffffffffffffffffffffffffffffffffffffffff161461221f57600080fd5b612238876040518060200160405280600081525061256f565b806122585750612257866040518060200160405280600081525061256f565b5b806122785750612277856040518060200160405280600081525061256f565b5b806122985750612297846040518060200160405280600081525061256f565b5b806122a35750600083105b806122ae5750600182105b156122bc5760009050612565565b60008090505b60028054905081101561246e5761238f85600283815481106122e057fe5b90600052602060002090600602016003018054600181600116156101000203166002900480601f0160208091040260200160405190810160405280929190818152602001828054600181600116156101000203166002900480156123855780601f1061235a57610100808354040283529160200191612385565b820191906000526020600020905b81548152906001019060200180831161236857829003601f168201915b505050505061256f565b1561246157612459600282815481106123a457fe5b90600052602060002090600602016003018054600181600116156101000203166002900480601f0160208091040260200160405190810160405280929190818152602001828054600181600116156101000203166002900480156124495780601f1061241e57610100808354040283529160200191612449565b820191906000526020600020905b81548152906001019060200180831161242c57829003601f168201915b5050505050898989898989611847565b915050612565565b80806001019150506122c2565b50612477612952565b6040518060c001604052808981526020018881526020018781526020018681526020018581526020018481525090506002819080600181540180825580915050906001820390600052602060002090600602016000909192909190915060008201518160000190805190602001906124f092919061266c565b50602082015181600101908051906020019061250d92919061266c565b50604082015181600201908051906020019061252a92919061266c565b50606082015181600301908051906020019061254792919061266c565b506080820151816004015560a0820151816005015550505060019150505b9695505050505050565b6000816040516020016125829190613164565b60405160208183030381529060405280519060200120836040516020016125a99190613164565b6040516020818303038152906040528051906020012014905092915050565b604051806060016040528060608152602001600073ffffffffffffffffffffffffffffffffffffffff168152602001600081525090565b6040518060c001604052806060815260200160608152602001606081526020016060815260200160008152602001600081525090565b604051806060016040528060608152602001600073ffffffffffffffffffffffffffffffffffffffff168152602001600081525090565b828054600181600116156101000203166002900490600052602060002090601f016020900481019282601f106126ad57805160ff19168380011785556126db565b828001600101855582156126db579182015b828111156126da5782518255916020019190600101906126bf565b5b5090506126e89190612988565b5090565b828054600181600116156101000203166002900490600052602060002090601f016020900481019282601f106127255780548555612762565b8280016001018555821561276257600052602060002091601f016020900482015b82811115612761578254825591600101919060010190612746565b5b50905061276f9190612988565b5090565b50805460018160011615610100020316600290046000825580601f1061279957506127b8565b601f0160209004906000526020600020908101906127b79190612988565b5b50565b8154818355818111156127e2578183600052602060002091820191016127e191906129ad565b5b505050565b828054600181600116156101000203166002900490600052602060002090601f016020900481019282601f10612820578054855561285d565b8280016001018555821561285d57600052602060002091601f016020900482015b8281111561285c578254825591600101919060010190612841565b5b50905061286a9190612988565b5090565b81548183558181111561289b5760030281600302836000526020600020918201910161289a91906129d9565b5b505050565b828054600181600116156101000203166002900490600052602060002090601f016020900481019282601f106128e157805160ff191683800117855561290f565b8280016001018555821561290f579182015b8281111561290e5782518255916020019190600101906128f3565b5b50905061291c9190612988565b5090565b81548183558181111561294d5760060281600602836000526020600020918201910161294c9190612a37565b5b505050565b6040518060c001604052806060815260200160608152602001606081526020016060815260200160008152602001600081525090565b6129aa91905b808211156129a657600081600090555060010161298e565b5090565b90565b6129d691905b808211156129d257600081816129c99190612773565b506001016129b3565b5090565b90565b612a3491905b80821115612a3057600080820160006129f89190612773565b6001820160006101000a81549073ffffffffffffffffffffffffffffffffffffffff02191690556002820160009055506003016129df565b5090565b90565b612aa391905b80821115612a9f5760008082016000612a569190612773565b600182016000612a669190612773565b600282016000612a769190612773565b600382016000612a869190612773565b6004820160009055600582016000905550600601612a3d565b5090565b90565b600081359050612ab58161338e565b92915050565b600082601f830112612acc57600080fd5b8135612adf612ada82613223565b6131f6565b91508082526020830160208301858383011115612afb57600080fd5b612b0683828461333b565b50505092915050565b600081359050612b1e816133a5565b92915050565b600060208284031215612b3657600080fd5b6000612b4484828501612aa6565b91505092915050565b600060208284031215612b5f57600080fd5b600082013567ffffffffffffffff811115612b7957600080fd5b612b8584828501612abb565b91505092915050565b60008060008060808587031215612ba457600080fd5b600085013567ffffffffffffffff811115612bbe57600080fd5b612bca87828801612abb565b945050602085013567ffffffffffffffff811115612be757600080fd5b612bf387828801612abb565b935050604085013567ffffffffffffffff811115612c1057600080fd5b612c1c87828801612abb565b925050606085013567ffffffffffffffff811115612c3957600080fd5b612c4587828801612abb565b91505092959194509250565b600080600080600080600060e0888a031215612c6c57600080fd5b600088013567ffffffffffffffff811115612c8657600080fd5b612c928a828b01612abb565b975050602088013567ffffffffffffffff811115612caf57600080fd5b612cbb8a828b01612abb565b965050604088013567ffffffffffffffff811115612cd857600080fd5b612ce48a828b01612abb565b955050606088013567ffffffffffffffff811115612d0157600080fd5b612d0d8a828b01612abb565b945050608088013567ffffffffffffffff811115612d2a57600080fd5b612d368a828b01612abb565b93505060a0612d478a828b01612b0f565b92505060c0612d588a828b01612b0f565b91505092959891949750929550565b60008060008060008060c08789031215612d8057600080fd5b600087013567ffffffffffffffff811115612d9a57600080fd5b612da689828a01612abb565b965050602087013567ffffffffffffffff811115612dc357600080fd5b612dcf89828a01612abb565b955050604087013567ffffffffffffffff811115612dec57600080fd5b612df889828a01612abb565b945050606087013567ffffffffffffffff811115612e1557600080fd5b612e2189828a01612abb565b9350506080612e3289828a01612b0f565b92505060a0612e4389828a01612b0f565b9150509295509295509295565b60008060408385031215612e6357600080fd5b600083013567ffffffffffffffff811115612e7d57600080fd5b612e8985828601612abb565b9250506020612e9a85828601612b0f565b9150509250929050565b600060208284031215612eb657600080fd5b6000612ec484828501612b0f565b91505092915050565b6000612ed98383613067565b905092915050565b6000612eed83836130b7565b905092915050565b612efe816132f3565b82525050565b6000612f0f8261326f565b612f1981856132b5565b935083602082028501612f2b8561324f565b8060005b85811015612f675784840389528151612f488582612ecd565b9450612f538361329b565b925060208a01995050600181019050612f2f565b50829750879550505050505092915050565b6000612f848261327a565b612f8e81856132c6565b935083602082028501612fa08561325f565b8060005b85811015612fdc5784840389528151612fbd8582612ee1565b9450612fc8836132a8565b925060208a01995050600181019050612fa4565b50829750879550505050505092915050565b612ff781613305565b82525050565b600061300882613290565b61301281856132e8565b935061302281856020860161334a565b80840191505092915050565b600061303982613285565b61304381856132d7565b935061305381856020860161334a565b61305c8161337d565b840191505092915050565b60006060830160008301518482036000860152613084828261302e565b91505060208301516130996020860182612ef5565b5060408301516130ac6040860182613155565b508091505092915050565b600060c08301600083015184820360008601526130d4828261302e565b915050602083015184820360208601526130ee828261302e565b91505060408301518482036040860152613108828261302e565b91505060608301518482036060860152613122828261302e565b91505060808301516131376080860182613155565b5060a083015161314a60a0860182613155565b508091505092915050565b61315e81613331565b82525050565b60006131708284612ffd565b915081905092915050565b60006020820190506131906000830184612fee565b92915050565b60006040820190506131ab6000830185612fee565b81810360208301526131bd8184612f04565b90509392505050565b60006040820190506131db6000830185612fee565b81810360208301526131ed8184612f79565b90509392505050565b6000604051905081810181811067ffffffffffffffff8211171561321957600080fd5b8060405250919050565b600067ffffffffffffffff82111561323a57600080fd5b601f19601f8301169050602081019050919050565b6000819050602082019050919050565b6000819050602082019050919050565b600081519050919050565b600081519050919050565b600081519050919050565b600081519050919050565b6000602082019050919050565b6000602082019050919050565b600082825260208201905092915050565b600082825260208201905092915050565b600082825260208201905092915050565b600081905092915050565b60006132fe82613311565b9050919050565b60008115159050919050565b600073ffffffffffffffffffffffffffffffffffffffff82169050919050565b6000819050919050565b82818337600083830152505050565b60005b8381101561336857808201518184015260208101905061334d565b83811115613377576000848401525b50505050565b6000601f19601f8301169050919050565b613397816132f3565b81146133a257600080fd5b50565b6133ae81613331565b81146133b957600080fd5b5056fea365627a7a72315820e448133e6dc6a216c6e5a60a40b5063cbc37771e56bda2a8ad524b9b173cad776c6578706572696d656e74616cf564736f6c63430005100040",
  "source": "pragma solidity ^0.5.0;\r\npragma experimental ABIEncoderV2;\r\n/*\r\nIn contractul pe care-l vom face vom avea urmatoarele elemente : \r\n1) Structuri pentru produse\r\n2) Functii de : adaugare, stergere, update, cautare, report.\r\n\r\n3) 15/04/2021 Functions :\r\n-Search for past orders //Sorina\r\n-BuyProduct //Sorina \r\n-RefundProduct //Madalina \r\n-OnSaleProduct //David\r\n*/\r\n\r\ncontract Products\r\n{\r\n    address owner; //doar ownerul va avea dreptul de a adauga produse\r\n    struct Product\r\n    {\r\n        string name;\r\n        string brand;\r\n        string country;\r\n        string unique_hash;\r\n        uint price;\r\n        uint pieces;\r\n    } \r\n    \r\n    struct BoughtProduct\r\n    {\r\n        string unique_hash;\r\n        address payable buyer_hash;\r\n        uint numberOrder;\r\n    }\r\n    \r\n    BoughtProduct [] BoughtProducts;\r\n    Product [] OProducts; \r\n    string [] ReportedHashProducts;\r\n    \r\n    uint UniqueNumberOrders = 0;\r\n    \r\n    address payable _owner_hash = 0x4A0cc881d57b786E7F0B4AA0ac6E057f415648E6;\r\n    \r\n    modifier OwnerReq() {\r\n        require(msg.sender == owner);\r\n        _;\r\n    }\r\n    \r\n    \r\n    constructor() public { \r\n        owner = _owner_hash;\r\n        Product memory nProduct = Product(\"Retro 1\", \"Jordan\",\"Somalia\", \"432539134\",10, 5);    \r\n        OProducts.push(nProduct); \r\n    }\r\n    \r\n    \r\n    /*\r\n    Input Populare : \r\n    \"Retro 1\", \"Jordan\",\"Somalia\", \"432539134\",699, 5\r\n    \"Retro 2\", \"Jordan\",\"Somalia\", \"432539114\",519, 1\r\n    \"Retro\", \"Jordan\",\"Somalia\", \"432569134\", 555, 3\r\n    \"Kanye 2\", \"Yeezy\",\"Somalia\", \"41239134\",899, 4\r\n    */\r\n    \r\n    function OnSaleProduct(string memory search_hash, uint discount) public OwnerReq returns (bool)\r\n    {\r\n        for(uint i = 0 ; i < OProducts.length; i++)\r\n            if(CompareStrings(OProducts[i].unique_hash,search_hash))\r\n             return UpdateProduct(search_hash,\"\",\"\",\"\",\"\", OProducts[i].price -  ((discount * OProducts[i].price) / 100),0);\r\n        return false;\r\n    }\r\n    \r\n    function AddProduct(string memory _name, string memory _brand, string memory _country, string memory _unique_hash, uint price, uint pieces) public OwnerReq returns (bool) //David\r\n    {\r\n        \r\n        if(CompareStrings(_name, \"\") || CompareStrings(_brand, \"\") || CompareStrings(_country, \"\") || CompareStrings(_unique_hash, \"\") || price < 0 || pieces < 1)\r\n            return false;\r\n            \r\n        for (uint i = 0; i < OProducts.length; i++)\r\n           if(CompareStrings(_unique_hash, OProducts[i].unique_hash))\r\n                return UpdateProduct(OProducts[i].unique_hash,_name,_brand,_country,_unique_hash,price,pieces); // we update it\r\n        \r\n         Product memory nProduct = Product(_name,_brand,_country,_unique_hash,price,pieces);    \r\n         OProducts.push(nProduct); \r\n        \r\n        return true;\r\n    }\r\n    \r\n    function RefundProduct(uint _numberOrder) public payable OwnerReq returns (bool) //Madalina\r\n    { \r\n        uint indexProduct = 0;\r\n        uint indexBought = 0;\r\n        bool inArrayProducts = false;\r\n        bool inArrayBought = false;\r\n        \r\n        //cauta produsul in BoughtProducts\r\n        for (uint i = 0; i < BoughtProducts.length; i++) {\r\n            if (_numberOrder == BoughtProducts[i].numberOrder)\r\n            {\r\n                indexBought = i;\r\n                inArrayBought = true;\r\n            }\r\n        }\r\n        \r\n        //cauta produsul in OProducts\r\n        for (uint i = 0; i < OProducts.length; i++) {\r\n            if (CompareStrings(BoughtProducts[indexBought].unique_hash, OProducts[i].unique_hash)) {\r\n                indexProduct = i;\r\n                inArrayProducts = true; \r\n            }\r\n        }\r\n        \r\n        //daca se afla in produsele spre vanzare si in lista cu produsele vandute \r\n        if (inArrayProducts == true && inArrayBought == true) {  \r\n             if (msg.value > msg.sender.balance) {revert();}\r\n            //returnam banii\r\n            // BoughtProducts storage b = BoughtProducts[indexBought];\r\n            // Product storage p = Product[indexProduct];\r\n            \r\n            BoughtProducts[indexBought].buyer_hash.transfer(OProducts[indexProduct].price);\r\n            \r\n            //stergem produsul din produsele vandute\r\n            for (uint j = indexBought; j < BoughtProducts.length - 1; j++) {\r\n                BoughtProducts[j] = BoughtProducts[j + 1];\r\n            }\r\n            \r\n            delete BoughtProducts[BoughtProducts.length - 1];\r\n            BoughtProducts.length--;\r\n            return true;\r\n        }\r\n        \r\n        \r\n        \r\n        return false;\r\n    }\r\n    \r\n    function RemoveProduct(string memory _unique_hash) public OwnerReq returns (bool) //Madalina\r\n    {\r\n        uint indexRemove = 0;\r\n        bool inArray = false;\r\n        \r\n        //cauta produsul in OProducts\r\n        for (uint i = 0; i < OProducts.length; i++) {\r\n            if (CompareStrings(_unique_hash, OProducts[i].unique_hash)) {\r\n                indexRemove = i;\r\n                inArray = true;\r\n            }\r\n        }\r\n        \r\n        if (inArray == true) { \r\n            for (uint j = indexRemove; j < OProducts.length - 1; j++) {\r\n                OProducts[j] = OProducts[j + 1];\r\n            }\r\n            \r\n            delete OProducts[OProducts.length - 1];\r\n            OProducts.length--;\r\n            return true;\r\n        }\r\n        \r\n        return false;\r\n    }\r\n    \r\n    function RemoveReportedProduct(string memory _unique_hash) public OwnerReq returns (bool) //Madalina\r\n    {\r\n        uint indexRemove = 0;\r\n        bool inArray = false;\r\n        \r\n        //cauta produsul in ReportedHashProducts\r\n        for (uint i = 0; i < ReportedHashProducts.length; i++) {\r\n            if (CompareStrings(_unique_hash, ReportedHashProducts[i])) {\r\n                indexRemove = i;\r\n                inArray = true;\r\n            }\r\n        }\r\n        \r\n        if (inArray == true) { \r\n            for (uint j = indexRemove; j < ReportedHashProducts.length - 1; j++) {\r\n                ReportedHashProducts[j] = ReportedHashProducts[j + 1];\r\n            }\r\n            \r\n            delete ReportedHashProducts[ReportedHashProducts.length - 1];\r\n            ReportedHashProducts.length--;\r\n            return true;\r\n        }\r\n        \r\n        return false;\r\n      \r\n    }\r\n    \r\n    function UpdateProduct(string memory old_unique_hash, string memory new_name, string memory new_brand, string memory new_country, string memory new_unique_hash,uint new_price, uint new_pieces) public OwnerReq returns (bool) //David\r\n    {\r\n        \r\n        for (uint i = 0; i < OProducts.length; i++)\r\n        {\r\n            if(CompareStrings(old_unique_hash,OProducts[i].unique_hash))\r\n            {\r\n            if(!CompareStrings(new_name, \"\"))\r\n                OProducts[i].name = new_name;\r\n            if(!CompareStrings(new_brand, \"\"))\r\n                OProducts[i].brand = new_brand;    \r\n            if(!CompareStrings(new_country, \"\"))\r\n                OProducts[i].country = new_country;\r\n            if(!CompareStrings(new_unique_hash, \"\"))\r\n                OProducts[i].unique_hash = new_unique_hash;  \r\n            if(new_price != OProducts[i].price && new_price > 0)\r\n                OProducts[i].price = new_price;  \r\n            if(new_pieces != OProducts[i].pieces && new_pieces > 0)\r\n                 OProducts[i].pieces = new_pieces;\r\n            return true;\r\n            }\r\n        }\r\n       return false;\r\n    }\r\n    \r\n    function CompareStrings(string memory _s1, string memory _s2) internal view returns(bool) \r\n    {\r\n        return keccak256(abi.encodePacked(_s1)) == keccak256(abi.encodePacked(_s2));\r\n    }\r\n \r\n    function SearchReportedProducts(string memory _unique_hash) public view returns (bool) //Sorina\r\n    {\r\n        // pentru ce nu vrem sa introducem in parametri vom pune \"\" \r\n        for (uint i = 0; i < ReportedHashProducts.length; i++) {\r\n            if(CompareStrings(ReportedHashProducts[i],_unique_hash))\r\n                return true;\r\n        }\r\n        \r\n        return false;\r\n    }\r\n    \r\n    function SearchProduct(string memory _name, string memory _brand, string memory _country, string memory _unique_hash) public view returns (bool, Product[] memory) //Sorina\r\n    {\r\n        Product[] memory id = new Product[](OProducts.length);\r\n        uint len = 0;\r\n        bool finalState = false;\r\n        // pentru ce nu vrem sa introducem in parametri vom pune \"\" \r\n        for (uint i = 0; i < OProducts.length; i++) {\r\n            if (CompareStrings(_name, \"\") || CompareStrings( _name, OProducts[i].name)) {\r\n                if (CompareStrings(_brand, \"\") || CompareStrings(_brand, OProducts[i].brand)) {\r\n                    if (CompareStrings(_country, \"\") || CompareStrings(_country, OProducts[i].country)) {\r\n                        if (CompareStrings(_unique_hash, \"\") || CompareStrings(_unique_hash, OProducts[i].unique_hash)) {\r\n                            \r\n                            Product storage aux = OProducts[i]; \r\n                            id[len] = aux;\r\n                            ++len;\r\n                            finalState = true;\r\n                        }\r\n                    }\r\n                }\r\n            }\r\n        }\r\n        \r\n        return (finalState,id);\r\n    } \r\n    \r\n    function BuyProduct(string memory _unique_hash) public payable returns (bool) //Sorina\r\n    {\r\n        // caut produsul in OProducts\r\n        for (uint i = 0; i < OProducts.length; i++) {\r\n            if (CompareStrings(_unique_hash, OProducts[i].unique_hash))\r\n            {\r\n                if (OProducts[i].pieces > 0) { \r\n                    if (msg.value > msg.sender.balance) {revert();}\r\n                    // scad numar de bucati \r\n                    OProducts[i].pieces = OProducts[i].pieces - 1;\r\n                    \r\n                    // incasez banii\r\n                    //address payable _owner_hash_payable = address(uint160(_owner_hash));\r\n                    _owner_hash.transfer(OProducts[i].price);\r\n\r\n                    // adaug tranzactia in bought products\r\n                    UniqueNumberOrders++;\r\n                    BoughtProduct memory nBoughtProduct = BoughtProduct(_unique_hash, msg.sender, UniqueNumberOrders);    \r\n                    BoughtProducts.push(nBoughtProduct); \r\n                    \r\n                    return true;\r\n                }\r\n            }\r\n        }\r\n        \r\n        return false;\r\n    }\r\n    \r\n    function SearchPastOrders(address payable _buyer_hash) public view returns (bool,BoughtProduct[] memory) // Sorina\r\n    { \r\n        bool state = false;\r\n        BoughtProduct[] memory id = new BoughtProduct[](BoughtProducts.length);  \r\n        for (uint i = 0; i < BoughtProducts.length; i++) {\r\n            if (_buyer_hash == BoughtProducts[i].buyer_hash) \r\n            {\r\n                BoughtProduct storage aux = BoughtProducts[i]; \r\n                id[i] = aux; \r\n                state = true;\r\n            }\r\n        }\r\n        \r\n        return (state,id);\r\n    }\r\n    \r\n    function ReportProduct(string memory _unique_hash) public returns (bool) //Sorina\r\n    {\r\n        for (uint i = 0; i < OProducts.length; i++) {\r\n            if (CompareStrings(_unique_hash, OProducts[i].unique_hash)) {\r\n                return false;\r\n            }\r\n        }\r\n        \r\n        for (uint i = 0; i < ReportedHashProducts.length; i++) {\r\n            if (CompareStrings(_unique_hash, ReportedHashProducts[i])) {\r\n                return false;\r\n            }\r\n        }\r\n        \r\n        ReportedHashProducts.push(_unique_hash);\r\n        return true;\r\n    }\r\n    \r\n}",
  "sourcePath": "D:/WORK/Faculty/3rd-year/blockchain/Blockchain-Project/contracts/Products.sol",
  "compiler": {
    "name": "solc",
    "version": "0.5.16+commit.9c3226ce.Emscripten.clang"
  },
  "schemaVersion": "3.4.0",
  "updatedAt": "2021-05-07T05:27:27.394Z",
  "networkType": "ethereum",
  "devdoc": {
    "methods": {}
  },
  "userdoc": {
    "methods": {}
  }
}