{
  "contractName": "Products",
  "abi": [
    {
      "inputs": [],
      "payable": false,
      "stateMutability": "nonpayable",
      "type": "constructor"
    },
    {
      "constant": false,
      "inputs": [
        {
          "internalType": "string",
          "name": "search_hash",
          "type": "string"
        },
        {
          "internalType": "uint256",
          "name": "discount",
          "type": "uint256"
        }
      ],
      "name": "OnSaleProduct",
      "outputs": [
        {
          "internalType": "bool",
          "name": "",
          "type": "bool"
        }
      ],
      "payable": false,
      "stateMutability": "nonpayable",
      "type": "function"
    },
    {
      "constant": false,
      "inputs": [
        {
          "internalType": "string",
          "name": "_name",
          "type": "string"
        },
        {
          "internalType": "string",
          "name": "_brand",
          "type": "string"
        },
        {
          "internalType": "string",
          "name": "_country",
          "type": "string"
        },
        {
          "internalType": "string",
          "name": "_unique_hash",
          "type": "string"
        },
        {
          "internalType": "uint256",
          "name": "price",
          "type": "uint256"
        },
        {
          "internalType": "uint256",
          "name": "pieces",
          "type": "uint256"
        }
      ],
      "name": "AddProduct",
      "outputs": [
        {
          "internalType": "bool",
          "name": "",
          "type": "bool"
        }
      ],
      "payable": false,
      "stateMutability": "nonpayable",
      "type": "function"
    },
    {
      "constant": false,
      "inputs": [
        {
          "internalType": "uint256",
          "name": "_numberOrder",
          "type": "uint256"
        }
      ],
      "name": "RefundProduct",
      "outputs": [
        {
          "internalType": "bool",
          "name": "",
          "type": "bool"
        }
      ],
      "payable": true,
      "stateMutability": "payable",
      "type": "function"
    },
    {
      "constant": false,
      "inputs": [
        {
          "internalType": "string",
          "name": "_unique_hash",
          "type": "string"
        }
      ],
      "name": "RemoveProduct",
      "outputs": [
        {
          "internalType": "bool",
          "name": "",
          "type": "bool"
        }
      ],
      "payable": false,
      "stateMutability": "nonpayable",
      "type": "function"
    },
    {
      "constant": false,
      "inputs": [
        {
          "internalType": "string",
          "name": "_unique_hash",
          "type": "string"
        }
      ],
      "name": "RemoveReportedProduct",
      "outputs": [
        {
          "internalType": "bool",
          "name": "",
          "type": "bool"
        }
      ],
      "payable": false,
      "stateMutability": "nonpayable",
      "type": "function"
    },
    {
      "constant": false,
      "inputs": [
        {
          "internalType": "string",
          "name": "old_unique_hash",
          "type": "string"
        },
        {
          "internalType": "string",
          "name": "new_name",
          "type": "string"
        },
        {
          "internalType": "string",
          "name": "new_brand",
          "type": "string"
        },
        {
          "internalType": "string",
          "name": "new_country",
          "type": "string"
        },
        {
          "internalType": "string",
          "name": "new_unique_hash",
          "type": "string"
        },
        {
          "internalType": "uint256",
          "name": "new_price",
          "type": "uint256"
        },
        {
          "internalType": "uint256",
          "name": "new_pieces",
          "type": "uint256"
        }
      ],
      "name": "UpdateProduct",
      "outputs": [
        {
          "internalType": "bool",
          "name": "",
          "type": "bool"
        }
      ],
      "payable": false,
      "stateMutability": "nonpayable",
      "type": "function"
    },
    {
      "constant": true,
      "inputs": [
        {
          "internalType": "string",
          "name": "_unique_hash",
          "type": "string"
        }
      ],
      "name": "SearchReportedProducts",
      "outputs": [
        {
          "internalType": "bool",
          "name": "",
          "type": "bool"
        }
      ],
      "payable": false,
      "stateMutability": "view",
      "type": "function"
    },
    {
      "constant": true,
      "inputs": [
        {
          "internalType": "string",
          "name": "_name",
          "type": "string"
        },
        {
          "internalType": "string",
          "name": "_brand",
          "type": "string"
        },
        {
          "internalType": "string",
          "name": "_country",
          "type": "string"
        },
        {
          "internalType": "string",
          "name": "_unique_hash",
          "type": "string"
        }
      ],
      "name": "SearchProduct",
      "outputs": [
        {
          "internalType": "bool",
          "name": "",
          "type": "bool"
        },
        {
          "components": [
            {
              "internalType": "string",
              "name": "name",
              "type": "string"
            },
            {
              "internalType": "string",
              "name": "brand",
              "type": "string"
            },
            {
              "internalType": "string",
              "name": "country",
              "type": "string"
            },
            {
              "internalType": "string",
              "name": "unique_hash",
              "type": "string"
            },
            {
              "internalType": "uint256",
              "name": "price",
              "type": "uint256"
            },
            {
              "internalType": "uint256",
              "name": "pieces",
              "type": "uint256"
            }
          ],
          "internalType": "struct Products.Product[]",
          "name": "",
          "type": "tuple[]"
        }
      ],
      "payable": false,
      "stateMutability": "view",
      "type": "function"
    },
    {
      "constant": false,
      "inputs": [
        {
          "internalType": "string",
          "name": "_unique_hash",
          "type": "string"
        }
      ],
      "name": "BuyProduct",
      "outputs": [
        {
          "internalType": "bool",
          "name": "",
          "type": "bool"
        }
      ],
      "payable": true,
      "stateMutability": "payable",
      "type": "function"
    },
    {
      "constant": true,
      "inputs": [
        {
          "internalType": "address payable",
          "name": "_buyer_hash",
          "type": "address"
        }
      ],
      "name": "SearchPastOrders",
      "outputs": [
        {
          "internalType": "bool",
          "name": "",
          "type": "bool"
        },
        {
          "components": [
            {
              "internalType": "string",
              "name": "unique_hash",
              "type": "string"
            },
            {
              "internalType": "address payable",
              "name": "buyer_hash",
              "type": "address"
            },
            {
              "internalType": "uint256",
              "name": "numberOrder",
              "type": "uint256"
            }
          ],
          "internalType": "struct Products.BoughtProduct[]",
          "name": "",
          "type": "tuple[]"
        }
      ],
      "payable": false,
      "stateMutability": "view",
      "type": "function"
    },
    {
      "constant": false,
      "inputs": [
        {
          "internalType": "string",
          "name": "_unique_hash",
          "type": "string"
        }
      ],
      "name": "ReportProduct",
      "outputs": [
        {
          "internalType": "bool",
          "name": "",
          "type": "bool"
        }
      ],
      "payable": false,
      "stateMutability": "nonpayable",
      "type": "function"
    }
  ],
  "bytecode": "0x60806040526000600455735b38da6a701c568545dcfcb03fcb875f56beddc4600560006101000a81548173ffffffffffffffffffffffffffffffffffffffff021916908373ffffffffffffffffffffffffffffffffffffffff1602179055503480156200006b57600080fd5b50600560009054906101000a900473ffffffffffffffffffffffffffffffffffffffff166000806101000a81548173ffffffffffffffffffffffffffffffffffffffff021916908373ffffffffffffffffffffffffffffffffffffffff160217905550620000d8620002a5565b6040518060c001604052806040518060400160405280600781526020017f526574726f20310000000000000000000000000000000000000000000000000081525081526020016040518060400160405280600681526020017f4a6f7264616e000000000000000000000000000000000000000000000000000081525081526020016040518060400160405280600781526020017f536f6d616c69610000000000000000000000000000000000000000000000000081525081526020016040518060400160405280600981526020017f34333235333931333400000000000000000000000000000000000000000000008152508152602001600a81526020016005815250905060028190806001815401808255809150509060018203906000526020600020906006020160009091929091909150600082015181600001908051906020019062000229929190620002db565b50602082015181600101908051906020019062000248929190620002db565b50604082015181600201908051906020019062000267929190620002db565b50606082015181600301908051906020019062000286929190620002db565b506080820151816004015560a08201518160050155505050506200038a565b6040518060c001604052806060815260200160608152602001606081526020016060815260200160008152602001600081525090565b828054600181600116156101000203166002900490600052602060002090601f016020900481019282601f106200031e57805160ff19168380011785556200034f565b828001600101855582156200034f579182015b828111156200034e57825182559160200191906001019062000331565b5b5090506200035e919062000362565b5090565b6200038791905b808211156200038357600081600090555060010162000369565b5090565b90565b613228806200039a6000396000f3fe60806040526004361061009c5760003560e01c80639f441ffe116100645780639f441ffe146101c7578063a5a307c3146101f7578063d7a7ca6f14610234578063f2d4347414610271578063fd17aaba146102ae578063ff84ca72146102eb5761009c565b8063414de45d146100a15780635581d8b7146100df57806364d36c211461011c578063693f6ef31461015a5780637c2319641461018a575b600080fd5b3480156100ad57600080fd5b506100c860048036036100c3919081019061294d565b610328565b6040516100d6929190612fbf565b60405180910390f35b3480156100eb57600080fd5b5061010660048036036101019190810190612c79565b61055f565b6040516101139190612fa4565b60405180910390f35b34801561012857600080fd5b50610143600480360361013e91908101906129b7565b610749565b604051610151929190612fef565b60405180910390f35b610174600480360361016f9190810190612976565b610e42565b6040516101819190612fa4565b60405180910390f35b34801561019657600080fd5b506101b160048036036101ac9190810190612976565b611144565b6040516101be9190612fa4565b60405180910390f35b6101e160048036036101dc9190810190612ccd565b611354565b6040516101ee9190612fa4565b60405180910390f35b34801561020357600080fd5b5061021e60048036036102199190810190612a7a565b61180f565b60405161022b9190612fa4565b60405180910390f35b34801561024057600080fd5b5061025b60048036036102569190810190612976565b611b5c565b6040516102689190612fa4565b60405180910390f35b34801561027d57600080fd5b5061029860048036036102939190810190612976565b611e5d565b6040516102a59190612fa4565b60405180910390f35b3480156102ba57600080fd5b506102d560048036036102d09190810190612976565b612081565b6040516102e29190612fa4565b60405180910390f35b3480156102f757600080fd5b50610312600480360361030d9190810190612b90565b612176565b60405161031f9190612fa4565b60405180910390f35b600060606000809050606060018054905060405190808252806020026020018201604052801561037257816020015b61035f61257a565b8152602001906001900390816103575790505b50905060008090505b600180549050811015610551576001818154811061039557fe5b906000526020600020906003020160010160009054906101000a900473ffffffffffffffffffffffffffffffffffffffff1673ffffffffffffffffffffffffffffffffffffffff168673ffffffffffffffffffffffffffffffffffffffff1614156105445760006001828154811061040957fe5b9060005260206000209060030201905080604051806060016040529081600082018054600181600116156101000203166002900480601f0160208091040260200160405190810160405280929190818152602001828054600181600116156101000203166002900480156104be5780601f10610493576101008083540402835291602001916104be565b820191906000526020600020905b8154815290600101906020018083116104a157829003601f168201915b505050505081526020016001820160009054906101000a900473ffffffffffffffffffffffffffffffffffffffff1673ffffffffffffffffffffffffffffffffffffffff1673ffffffffffffffffffffffffffffffffffffffff16815260200160028201548152505083838151811061053357fe5b602002602001018190525060019350505b808060010191505061037b565b508181935093505050915091565b60008060009054906101000a900473ffffffffffffffffffffffffffffffffffffffff1673ffffffffffffffffffffffffffffffffffffffff163373ffffffffffffffffffffffffffffffffffffffff16146105ba57600080fd5b60008090505b60028054905081101561073d5761068d600282815481106105dd57fe5b90600052602060002090600602016003018054600181600116156101000203166002900480601f0160208091040260200160405190810160405280929190818152602001828054600181600116156101000203166002900480156106825780601f1061065757610100808354040283529160200191610682565b820191906000526020600020905b81548152906001019060200180831161066557829003601f168201915b505050505085612521565b156107305761072884604051806020016040528060008152506040518060200160405280600081525060405180602001604052806000815250604051806020016040528060008152506064600288815481106106e557fe5b9060005260206000209060060201600401548a028161070057fe5b046002888154811061070e57fe5b90600052602060002090600602016004015403600061180f565b915050610743565b80806001019150506105c0565b50600090505b92915050565b600060608060028054905060405190808252806020026020018201604052801561078d57816020015b61077a6125b1565b8152602001906001900390816107725790505b509050600080905060008090505b600280549050811015610e30576107c18960405180602001604052806000815250612521565b80610888575061088789600283815481106107d857fe5b90600052602060002090600602016000018054600181600116156101000203166002900480601f01602080910402602001604051908101604052809291908181526020018280546001816001161561010002031660029004801561087d5780601f106108525761010080835404028352916020019161087d565b820191906000526020600020905b81548152906001019060200180831161086057829003601f168201915b5050505050612521565b5b15610e23576108a68860405180602001604052806000815250612521565b8061096d575061096c88600283815481106108bd57fe5b90600052602060002090600602016001018054600181600116156101000203166002900480601f0160208091040260200160405190810160405280929190818152602001828054600181600116156101000203166002900480156109625780601f1061093757610100808354040283529160200191610962565b820191906000526020600020905b81548152906001019060200180831161094557829003601f168201915b5050505050612521565b5b15610e225761098b8760405180602001604052806000815250612521565b80610a525750610a5187600283815481106109a257fe5b90600052602060002090600602016002018054600181600116156101000203166002900480601f016020809104026020016040519081016040528092919081815260200182805460018160011615610100020316600290048015610a475780601f10610a1c57610100808354040283529160200191610a47565b820191906000526020600020905b815481529060010190602001808311610a2a57829003601f168201915b5050505050612521565b5b15610e2157610a708660405180602001604052806000815250612521565b80610b375750610b368660028381548110610a8757fe5b90600052602060002090600602016003018054600181600116156101000203166002900480601f016020809104026020016040519081016040528092919081815260200182805460018160011615610100020316600290048015610b2c5780601f10610b0157610100808354040283529160200191610b2c565b820191906000526020600020905b815481529060010190602001808311610b0f57829003601f168201915b5050505050612521565b5b15610e2057600060028281548110610b4b57fe5b90600052602060002090600602019050806040518060c0016040529081600082018054600181600116156101000203166002900480601f016020809104026020016040519081016040528092919081815260200182805460018160011615610100020316600290048015610c005780601f10610bd557610100808354040283529160200191610c00565b820191906000526020600020905b815481529060010190602001808311610be357829003601f168201915b50505050508152602001600182018054600181600116156101000203166002900480601f016020809104026020016040519081016040528092919081815260200182805460018160011615610100020316600290048015610ca25780601f10610c7757610100808354040283529160200191610ca2565b820191906000526020600020905b815481529060010190602001808311610c8557829003601f168201915b50505050508152602001600282018054600181600116156101000203166002900480601f016020809104026020016040519081016040528092919081815260200182805460018160011615610100020316600290048015610d445780601f10610d1957610100808354040283529160200191610d44565b820191906000526020600020905b815481529060010190602001808311610d2757829003601f168201915b50505050508152602001600382018054600181600116156101000203166002900480601f016020809104026020016040519081016040528092919081815260200182805460018160011615610100020316600290048015610de65780601f10610dbb57610100808354040283529160200191610de6565b820191906000526020600020905b815481529060010190602001808311610dc957829003601f168201915b5050505050815260200160048201548152602001600582015481525050848381518110610e0f57fe5b602002602001018190525060019250505b5b5b5b808060010191505061079b565b50808293509350505094509492505050565b600080600090505b60028054905081101561113957610f178360028381548110610e6857fe5b90600052602060002090600602016003018054600181600116156101000203166002900480601f016020809104026020016040519081016040528092919081815260200182805460018160011615610100020316600290048015610f0d5780601f10610ee257610100808354040283529160200191610f0d565b820191906000526020600020905b815481529060010190602001808311610ef057829003601f168201915b5050505050612521565b1561112c57600060028281548110610f2b57fe5b906000526020600020906006020160050154111561112b573373ffffffffffffffffffffffffffffffffffffffff1631341115610f6757600080fd5b600160028281548110610f7657fe5b9060005260206000209060060201600501540360028281548110610f9657fe5b906000526020600020906006020160050181905550600560009054906101000a900473ffffffffffffffffffffffffffffffffffffffff1673ffffffffffffffffffffffffffffffffffffffff166108fc60028381548110610ff457fe5b9060005260206000209060060201600401549081150290604051600060405180830381858888f19350505050158015611031573d6000803e3d6000fd5b5060046000815480929190600101919050555061104c6125e7565b60405180606001604052808581526020013373ffffffffffffffffffffffffffffffffffffffff16815260200160045481525090506001819080600181540180825580915050906001820390600052602060002090600302016000909192909190915060008201518160000190805190602001906110cb92919061261e565b5060208201518160010160006101000a81548173ffffffffffffffffffffffffffffffffffffffff021916908373ffffffffffffffffffffffffffffffffffffffff1602179055506040820151816002015550505060019250505061113f565b5b8080600101915050610e4a565b50600090505b919050565b60008060009054906101000a900473ffffffffffffffffffffffffffffffffffffffff1673ffffffffffffffffffffffffffffffffffffffff163373ffffffffffffffffffffffffffffffffffffffff161461119f57600080fd5b6000809050600080905060008090505b60038054905081101561128f5761127585600383815481106111cd57fe5b906000526020600020018054600181600116156101000203166002900480601f01602080910402602001604051908101604052809291908181526020018280546001816001161561010002031660029004801561126b5780601f106112405761010080835404028352916020019161126b565b820191906000526020600020905b81548152906001019060200180831161124e57829003601f168201915b5050505050612521565b1561128257809250600191505b80806001019150506111af565b506001151581151514156113485760008290505b60016003805490500381101561131157600360018201815481106112c357fe5b90600052602060002001600382815481106112da57fe5b90600052602060002001908054600181600116156101000203166002900461130392919061269e565b5080806001019150506112a3565b5060036001600380549050038154811061132757fe5b90600052602060002001600061133d9190612725565b60019250505061134f565b6000925050505b919050565b60008060009054906101000a900473ffffffffffffffffffffffffffffffffffffffff1673ffffffffffffffffffffffffffffffffffffffff163373ffffffffffffffffffffffffffffffffffffffff16146113af57600080fd5b600080905060008090506000809050600080905060008090505b60018054905081101561141157600181815481106113e357fe5b90600052602060002090600302016002015487141561140457809350600191505b80806001019150506113c9565b5060008090505b6002805490508110156115b55761159b6001858154811061143557fe5b90600052602060002090600302016000018054600181600116156101000203166002900480601f0160208091040260200160405190810160405280929190818152602001828054600181600116156101000203166002900480156114da5780601f106114af576101008083540402835291602001916114da565b820191906000526020600020905b8154815290600101906020018083116114bd57829003601f168201915b5050505050600283815481106114ec57fe5b90600052602060002090600602016003018054600181600116156101000203166002900480601f0160208091040260200160405190810160405280929190818152602001828054600181600116156101000203166002900480156115915780601f1061156657610100808354040283529160200191611591565b820191906000526020600020905b81548152906001019060200180831161157457829003601f168201915b5050505050612521565b156115a857809450600192505b8080600101915050611418565b50600115158215151480156115ce575060011515811515145b15611801573373ffffffffffffffffffffffffffffffffffffffff16313411156115f757600080fd5b6001838154811061160457fe5b906000526020600020906003020160010160009054906101000a900473ffffffffffffffffffffffffffffffffffffffff1673ffffffffffffffffffffffffffffffffffffffff166108fc6002868154811061165c57fe5b9060005260206000209060060201600401549081150290604051600060405180830381858888f19350505050158015611699573d6000803e3d6000fd5b5060008390505b6001808054905003811015611790576001808201815481106116be57fe5b9060005260206000209060030201600182815481106116d957fe5b90600052602060002090600302016000820181600001908054600181600116156101000203166002900461170e92919061276d565b506001820160009054906101000a900473ffffffffffffffffffffffffffffffffffffffff168160010160006101000a81548173ffffffffffffffffffffffffffffffffffffffff021916908373ffffffffffffffffffffffffffffffffffffffff1602179055506002820154816002015590505080806001019150506116a0565b50600180808054905003815481106117a457fe5b9060005260206000209060030201600080820160006117c39190612725565b6001820160006101000a81549073ffffffffffffffffffffffffffffffffffffffff021916905560028201600090555050600194505050505061180a565b60009450505050505b919050565b60008060009054906101000a900473ffffffffffffffffffffffffffffffffffffffff1673ffffffffffffffffffffffffffffffffffffffff163373ffffffffffffffffffffffffffffffffffffffff161461186a57600080fd5b60008090505b600280549050811015611b4b5761193d896002838154811061188e57fe5b90600052602060002090600602016003018054600181600116156101000203166002900480601f0160208091040260200160405190810160405280929190818152602001828054600181600116156101000203166002900480156119335780601f1061190857610100808354040283529160200191611933565b820191906000526020600020905b81548152906001019060200180831161191657829003601f168201915b5050505050612521565b15611b3e5761195b8860405180602001604052806000815250612521565b61199357876002828154811061196d57fe5b906000526020600020906006020160000190805190602001906119919291906127f4565b505b6119ac8760405180602001604052806000815250612521565b6119e45786600282815481106119be57fe5b906000526020600020906006020160010190805190602001906119e29291906127f4565b505b6119fd8660405180602001604052806000815250612521565b611a35578560028281548110611a0f57fe5b90600052602060002090600602016002019080519060200190611a339291906127f4565b505b611a4e8560405180602001604052806000815250612521565b611a86578460028281548110611a6057fe5b90600052602060002090600602016003019080519060200190611a849291906127f4565b505b60028181548110611a9357fe5b9060005260206000209060060201600401548414158015611ab45750600084115b15611add578360028281548110611ac757fe5b9060005260206000209060060201600401819055505b60028181548110611aea57fe5b9060005260206000209060060201600501548314158015611b0b5750600083115b15611b34578260028281548110611b1e57fe5b9060005260206000209060060201600501819055505b6001915050611b51565b8080600101915050611870565b50600090505b979650505050505050565b60008060009054906101000a900473ffffffffffffffffffffffffffffffffffffffff1673ffffffffffffffffffffffffffffffffffffffff163373ffffffffffffffffffffffffffffffffffffffff1614611bb757600080fd5b6000809050600080905060008090505b600280549050811015611cae57611c948560028381548110611be557fe5b90600052602060002090600602016003018054600181600116156101000203166002900480601f016020809104026020016040519081016040528092919081815260200182805460018160011615610100020316600290048015611c8a5780601f10611c5f57610100808354040283529160200191611c8a565b820191906000526020600020905b815481529060010190602001808311611c6d57829003601f168201915b5050505050612521565b15611ca157809250600191505b8080600101915050611bc7565b50600115158115151415611e515760008290505b600160028054905003811015611dcf5760026001820181548110611ce257fe5b906000526020600020906006020160028281548110611cfd57fe5b906000526020600020906006020160008201816000019080546001816001161561010002031660029004611d3292919061276d565b5060018201816001019080546001816001161561010002031660029004611d5a92919061276d565b5060028201816002019080546001816001161561010002031660029004611d8292919061276d565b5060038201816003019080546001816001161561010002031660029004611daa92919061276d565b5060048201548160040155600582015481600501559050508080600101915050611cc2565b50600260016002805490500381548110611de557fe5b906000526020600020906006020160008082016000611e049190612725565b600182016000611e149190612725565b600282016000611e249190612725565b600382016000611e349190612725565b600482016000905560058201600090555050600192505050611e58565b6000925050505b919050565b600080600090505b600280549050811015611f4e57611f328360028381548110611e8357fe5b90600052602060002090600602016003018054600181600116156101000203166002900480601f016020809104026020016040519081016040528092919081815260200182805460018160011615610100020316600290048015611f285780601f10611efd57610100808354040283529160200191611f28565b820191906000526020600020905b815481529060010190602001808311611f0b57829003601f168201915b5050505050612521565b15611f4157600091505061207c565b8080600101915050611e65565b5060008090505b6003805490508110156120375761201b8360038381548110611f7357fe5b906000526020600020018054600181600116156101000203166002900480601f0160208091040260200160405190810160405280929190818152602001828054600181600116156101000203166002900480156120115780601f10611fe657610100808354040283529160200191612011565b820191906000526020600020905b815481529060010190602001808311611ff457829003601f168201915b5050505050612521565b1561202a57600091505061207c565b8080600101915050611f55565b5060038290806001815401808255809150509060018203906000526020600020016000909192909190915090805190602001906120759291906127f4565b5050600190505b919050565b600080600090505b60038054905081101561216b5761214f600382815481106120a657fe5b906000526020600020018054600181600116156101000203166002900480601f0160208091040260200160405190810160405280929190818152602001828054600181600116156101000203166002900480156121445780601f1061211957610100808354040283529160200191612144565b820191906000526020600020905b81548152906001019060200180831161212757829003601f168201915b505050505084612521565b1561215e576001915050612171565b8080600101915050612089565b50600090505b919050565b60008060009054906101000a900473ffffffffffffffffffffffffffffffffffffffff1673ffffffffffffffffffffffffffffffffffffffff163373ffffffffffffffffffffffffffffffffffffffff16146121d157600080fd5b6121ea8760405180602001604052806000815250612521565b8061220a57506122098660405180602001604052806000815250612521565b5b8061222a57506122298560405180602001604052806000815250612521565b5b8061224a57506122498460405180602001604052806000815250612521565b5b806122555750600083105b806122605750600182105b1561226e5760009050612517565b60008090505b60028054905081101561242057612341856002838154811061229257fe5b90600052602060002090600602016003018054600181600116156101000203166002900480601f0160208091040260200160405190810160405280929190818152602001828054600181600116156101000203166002900480156123375780601f1061230c57610100808354040283529160200191612337565b820191906000526020600020905b81548152906001019060200180831161231a57829003601f168201915b5050505050612521565b156124135761240b6002828154811061235657fe5b90600052602060002090600602016003018054600181600116156101000203166002900480601f0160208091040260200160405190810160405280929190818152602001828054600181600116156101000203166002900480156123fb5780601f106123d0576101008083540402835291602001916123fb565b820191906000526020600020905b8154815290600101906020018083116123de57829003601f168201915b505050505089898989898961180f565b915050612517565b8080600101915050612274565b50612429612874565b6040518060c001604052808981526020018881526020018781526020018681526020018581526020018481525090506002819080600181540180825580915050906001820390600052602060002090600602016000909192909190915060008201518160000190805190602001906124a292919061261e565b5060208201518160010190805190602001906124bf92919061261e565b5060408201518160020190805190602001906124dc92919061261e565b5060608201518160030190805190602001906124f992919061261e565b506080820151816004015560a0820151816005015550505060019150505b9695505050505050565b6000816040516020016125349190612f8d565b604051602081830303815290604052805190602001208360405160200161255b9190612f8d565b6040516020818303038152906040528051906020012014905092915050565b604051806060016040528060608152602001600073ffffffffffffffffffffffffffffffffffffffff168152602001600081525090565b6040518060c001604052806060815260200160608152602001606081526020016060815260200160008152602001600081525090565b604051806060016040528060608152602001600073ffffffffffffffffffffffffffffffffffffffff168152602001600081525090565b828054600181600116156101000203166002900490600052602060002090601f016020900481019282601f1061265f57805160ff191683800117855561268d565b8280016001018555821561268d579182015b8281111561268c578251825591602001919060010190612671565b5b50905061269a91906128aa565b5090565b828054600181600116156101000203166002900490600052602060002090601f016020900481019282601f106126d75780548555612714565b8280016001018555821561271457600052602060002091601f016020900482015b828111156127135782548255916001019190600101906126f8565b5b50905061272191906128aa565b5090565b50805460018160011615610100020316600290046000825580601f1061274b575061276a565b601f01602090049060005260206000209081019061276991906128aa565b5b50565b828054600181600116156101000203166002900490600052602060002090601f016020900481019282601f106127a657805485556127e3565b828001600101855582156127e357600052602060002091601f016020900482015b828111156127e25782548255916001019190600101906127c7565b5b5090506127f091906128aa565b5090565b828054600181600116156101000203166002900490600052602060002090601f016020900481019282601f1061283557805160ff1916838001178555612863565b82800160010185558215612863579182015b82811115612862578251825591602001919060010190612847565b5b50905061287091906128aa565b5090565b6040518060c001604052806060815260200160608152602001606081526020016060815260200160008152602001600081525090565b6128cc91905b808211156128c85760008160009055506001016128b0565b5090565b90565b6000813590506128de816131b7565b92915050565b600082601f8301126128f557600080fd5b81356129086129038261304c565b61301f565b9150808252602083016020830185838301111561292457600080fd5b61292f838284613164565b50505092915050565b600081359050612947816131ce565b92915050565b60006020828403121561295f57600080fd5b600061296d848285016128cf565b91505092915050565b60006020828403121561298857600080fd5b600082013567ffffffffffffffff8111156129a257600080fd5b6129ae848285016128e4565b91505092915050565b600080600080608085870312156129cd57600080fd5b600085013567ffffffffffffffff8111156129e757600080fd5b6129f3878288016128e4565b945050602085013567ffffffffffffffff811115612a1057600080fd5b612a1c878288016128e4565b935050604085013567ffffffffffffffff811115612a3957600080fd5b612a45878288016128e4565b925050606085013567ffffffffffffffff811115612a6257600080fd5b612a6e878288016128e4565b91505092959194509250565b600080600080600080600060e0888a031215612a9557600080fd5b600088013567ffffffffffffffff811115612aaf57600080fd5b612abb8a828b016128e4565b975050602088013567ffffffffffffffff811115612ad857600080fd5b612ae48a828b016128e4565b965050604088013567ffffffffffffffff811115612b0157600080fd5b612b0d8a828b016128e4565b955050606088013567ffffffffffffffff811115612b2a57600080fd5b612b368a828b016128e4565b945050608088013567ffffffffffffffff811115612b5357600080fd5b612b5f8a828b016128e4565b93505060a0612b708a828b01612938565b92505060c0612b818a828b01612938565b91505092959891949750929550565b60008060008060008060c08789031215612ba957600080fd5b600087013567ffffffffffffffff811115612bc357600080fd5b612bcf89828a016128e4565b965050602087013567ffffffffffffffff811115612bec57600080fd5b612bf889828a016128e4565b955050604087013567ffffffffffffffff811115612c1557600080fd5b612c2189828a016128e4565b945050606087013567ffffffffffffffff811115612c3e57600080fd5b612c4a89828a016128e4565b9350506080612c5b89828a01612938565b92505060a0612c6c89828a01612938565b9150509295509295509295565b60008060408385031215612c8c57600080fd5b600083013567ffffffffffffffff811115612ca657600080fd5b612cb2858286016128e4565b9250506020612cc385828601612938565b9150509250929050565b600060208284031215612cdf57600080fd5b6000612ced84828501612938565b91505092915050565b6000612d028383612e90565b905092915050565b6000612d168383612ee0565b905092915050565b612d278161311c565b82525050565b6000612d3882613098565b612d4281856130de565b935083602082028501612d5485613078565b8060005b85811015612d905784840389528151612d718582612cf6565b9450612d7c836130c4565b925060208a01995050600181019050612d58565b50829750879550505050505092915050565b6000612dad826130a3565b612db781856130ef565b935083602082028501612dc985613088565b8060005b85811015612e055784840389528151612de68582612d0a565b9450612df1836130d1565b925060208a01995050600181019050612dcd565b50829750879550505050505092915050565b612e208161312e565b82525050565b6000612e31826130b9565b612e3b8185613111565b9350612e4b818560208601613173565b80840191505092915050565b6000612e62826130ae565b612e6c8185613100565b9350612e7c818560208601613173565b612e85816131a6565b840191505092915050565b60006060830160008301518482036000860152612ead8282612e57565b9150506020830151612ec26020860182612d1e565b506040830151612ed56040860182612f7e565b508091505092915050565b600060c0830160008301518482036000860152612efd8282612e57565b91505060208301518482036020860152612f178282612e57565b91505060408301518482036040860152612f318282612e57565b91505060608301518482036060860152612f4b8282612e57565b9150506080830151612f606080860182612f7e565b5060a0830151612f7360a0860182612f7e565b508091505092915050565b612f878161315a565b82525050565b6000612f998284612e26565b915081905092915050565b6000602082019050612fb96000830184612e17565b92915050565b6000604082019050612fd46000830185612e17565b8181036020830152612fe68184612d2d565b90509392505050565b60006040820190506130046000830185612e17565b81810360208301526130168184612da2565b90509392505050565b6000604051905081810181811067ffffffffffffffff8211171561304257600080fd5b8060405250919050565b600067ffffffffffffffff82111561306357600080fd5b601f19601f8301169050602081019050919050565b6000819050602082019050919050565b6000819050602082019050919050565b600081519050919050565b600081519050919050565b600081519050919050565b600081519050919050565b6000602082019050919050565b6000602082019050919050565b600082825260208201905092915050565b600082825260208201905092915050565b600082825260208201905092915050565b600081905092915050565b60006131278261313a565b9050919050565b60008115159050919050565b600073ffffffffffffffffffffffffffffffffffffffff82169050919050565b6000819050919050565b82818337600083830152505050565b60005b83811015613191578082015181840152602081019050613176565b838111156131a0576000848401525b50505050565b6000601f19601f8301169050919050565b6131c08161311c565b81146131cb57600080fd5b50565b6131d78161315a565b81146131e257600080fd5b5056fea365627a7a72315820fdcf0b4894553f7d1c8a36be107fbaa599f37d1f49ed0f9a5291fe92a22ecfed6c6578706572696d656e74616cf564736f6c63430005100040",
  "source": "pragma solidity ^0.5.0;\r\npragma experimental ABIEncoderV2;\r\n/*\r\nIn contractul pe care-l vom face vom avea urmatoarele elemente : \r\n1) Structuri pentru produse\r\n2) Functii de : adaugare, stergere, update, cautare, report.\r\n\r\n3) 15/04/2021 Functions :\r\n-Search for past orders //Sorina\r\n-BuyProduct //Sorina \r\n-RefundProduct //Madalina \r\n-OnSaleProduct //David\r\n*/\r\n\r\ncontract Products\r\n{\r\n    address owner; //doar ownerul va avea dreptul de a adauga produse\r\n    struct Product\r\n    {\r\n        string name;\r\n        string brand;\r\n        string country;\r\n        string unique_hash;\r\n        uint price;\r\n        uint pieces;\r\n    } \r\n    \r\n    struct BoughtProduct\r\n    {\r\n        string unique_hash;\r\n        address payable buyer_hash;\r\n        uint numberOrder;\r\n    }\r\n    \r\n    BoughtProduct [] BoughtProducts;\r\n    Product [] OProducts; \r\n    string [] ReportedHashProducts;\r\n    \r\n    uint UniqueNumberOrders = 0;\r\n    \r\n    address payable _owner_hash = 0x5B38Da6a701c568545dCfcB03FcB875f56beddC4;\r\n    \r\n    modifier OwnerReq() {\r\n        require(msg.sender == owner);\r\n        _;\r\n    }\r\n    \r\n    \r\n    constructor() public { \r\n        owner = _owner_hash;\r\n        Product memory nProduct = Product(\"Retro 1\", \"Jordan\",\"Somalia\", \"432539134\",10, 5);    \r\n        OProducts.push(nProduct); \r\n    }\r\n    \r\n    \r\n    /*\r\n    Input Populare : \r\n    \"Retro 1\", \"Jordan\",\"Somalia\", \"432539134\",699, 5\r\n    \"Retro 2\", \"Jordan\",\"Somalia\", \"432539114\",519, 1\r\n    \"Retro\", \"Jordan\",\"Somalia\", \"432569134\", 555, 3\r\n    \"Kanye 2\", \"Yeezy\",\"Somalia\", \"41239134\",899, 4\r\n    */\r\n    \r\n    function OnSaleProduct(string memory search_hash, uint discount) public OwnerReq returns (bool)\r\n    {\r\n        for(uint i = 0 ; i < OProducts.length; i++)\r\n            if(CompareStrings(OProducts[i].unique_hash,search_hash))\r\n             return UpdateProduct(search_hash,\"\",\"\",\"\",\"\", OProducts[i].price -  ((discount * OProducts[i].price) / 100),0);\r\n        return false;\r\n    }\r\n    \r\n    function AddProduct(string memory _name, string memory _brand, string memory _country, string memory _unique_hash, uint price, uint pieces) public OwnerReq returns (bool) //David\r\n    {\r\n        \r\n        if(CompareStrings(_name, \"\") || CompareStrings(_brand, \"\") || CompareStrings(_country, \"\") || CompareStrings(_unique_hash, \"\") || price < 0 || pieces < 1)\r\n            return false;\r\n            \r\n        for (uint i = 0; i < OProducts.length; i++)\r\n           if(CompareStrings(_unique_hash, OProducts[i].unique_hash))\r\n                return UpdateProduct(OProducts[i].unique_hash,_name,_brand,_country,_unique_hash,price,pieces); // we update it\r\n        \r\n         Product memory nProduct = Product(_name,_brand,_country,_unique_hash,price,pieces);    \r\n         OProducts.push(nProduct); \r\n        \r\n        return true;\r\n    }\r\n    \r\n    function RefundProduct(uint _numberOrder) public payable OwnerReq returns (bool) //Madalina\r\n    { \r\n        uint indexProduct = 0;\r\n        uint indexBought = 0;\r\n        bool inArrayProducts = false;\r\n        bool inArrayBought = false;\r\n        \r\n        //cauta produsul in BoughtProducts\r\n        for (uint i = 0; i < BoughtProducts.length; i++) {\r\n            if (_numberOrder == BoughtProducts[i].numberOrder)\r\n            {\r\n                indexBought = i;\r\n                inArrayBought = true;\r\n            }\r\n        }\r\n        \r\n        //cauta produsul in OProducts\r\n        for (uint i = 0; i < OProducts.length; i++) {\r\n            if (CompareStrings(BoughtProducts[indexBought].unique_hash, OProducts[i].unique_hash)) {\r\n                indexProduct = i;\r\n                inArrayProducts = true; \r\n            }\r\n        }\r\n        \r\n        //daca se afla in produsele spre vanzare si in lista cu produsele vandute \r\n        if (inArrayProducts == true && inArrayBought == true) {  \r\n             if (msg.value > msg.sender.balance) {revert();}\r\n            //returnam banii\r\n            // BoughtProducts storage b = BoughtProducts[indexBought];\r\n            // Product storage p = Product[indexProduct];\r\n            \r\n            BoughtProducts[indexBought].buyer_hash.transfer(OProducts[indexProduct].price);\r\n            \r\n            //stergem produsul din produsele vandute\r\n            for (uint j = indexBought; j < BoughtProducts.length - 1; j++) {\r\n                BoughtProducts[j] = BoughtProducts[j + 1];\r\n            }\r\n            \r\n            delete BoughtProducts[BoughtProducts.length - 1];\r\n            return true;\r\n        }\r\n        \r\n        \r\n        \r\n        return false;\r\n    }\r\n    \r\n    function RemoveProduct(string memory _unique_hash) public OwnerReq returns (bool) //Madalina\r\n    {\r\n        uint indexRemove = 0;\r\n        bool inArray = false;\r\n        \r\n        //cauta produsul in OProducts\r\n        for (uint i = 0; i < OProducts.length; i++) {\r\n            if (CompareStrings(_unique_hash, OProducts[i].unique_hash)) {\r\n                indexRemove = i;\r\n                inArray = true;\r\n            }\r\n        }\r\n        \r\n        if (inArray == true) { \r\n            for (uint j = indexRemove; j < OProducts.length - 1; j++) {\r\n                OProducts[j] = OProducts[j + 1];\r\n            }\r\n            \r\n            delete OProducts[OProducts.length - 1];\r\n            return true;\r\n        }\r\n        \r\n        return false;\r\n    }\r\n    \r\n    function RemoveReportedProduct(string memory _unique_hash) public OwnerReq returns (bool) //Madalina\r\n    {\r\n        uint indexRemove = 0;\r\n        bool inArray = false;\r\n        \r\n        //cauta produsul in ReportedHashProducts\r\n        for (uint i = 0; i < ReportedHashProducts.length; i++) {\r\n            if (CompareStrings(_unique_hash, ReportedHashProducts[i])) {\r\n                indexRemove = i;\r\n                inArray = true;\r\n            }\r\n        }\r\n        \r\n        if (inArray == true) { \r\n            for (uint j = indexRemove; j < ReportedHashProducts.length - 1; j++) {\r\n                ReportedHashProducts[j] = ReportedHashProducts[j + 1];\r\n            }\r\n            \r\n            delete ReportedHashProducts[ReportedHashProducts.length - 1];\r\n            return true;\r\n        }\r\n        \r\n        return false;\r\n      \r\n    }\r\n    \r\n    function UpdateProduct(string memory old_unique_hash, string memory new_name, string memory new_brand, string memory new_country, string memory new_unique_hash,uint new_price, uint new_pieces) public OwnerReq returns (bool) //David\r\n    {\r\n        \r\n        for (uint i = 0; i < OProducts.length; i++)\r\n        {\r\n            if(CompareStrings(old_unique_hash,OProducts[i].unique_hash))\r\n            {\r\n            if(!CompareStrings(new_name, \"\"))\r\n                OProducts[i].name = new_name;\r\n            if(!CompareStrings(new_brand, \"\"))\r\n                OProducts[i].brand = new_brand;    \r\n            if(!CompareStrings(new_country, \"\"))\r\n                OProducts[i].country = new_country;\r\n            if(!CompareStrings(new_unique_hash, \"\"))\r\n                OProducts[i].unique_hash = new_unique_hash;  \r\n            if(new_price != OProducts[i].price && new_price > 0)\r\n                OProducts[i].price = new_price;  \r\n            if(new_pieces != OProducts[i].pieces && new_pieces > 0)\r\n                 OProducts[i].pieces = new_pieces;\r\n            return true;\r\n            }\r\n        }\r\n       return false;\r\n    }\r\n    \r\n    function CompareStrings(string memory _s1, string memory _s2) internal view returns(bool) \r\n    {\r\n        return keccak256(abi.encodePacked(_s1)) == keccak256(abi.encodePacked(_s2));\r\n    }\r\n \r\n    function SearchReportedProducts(string memory _unique_hash) public view returns (bool) //Sorina\r\n    {\r\n        // pentru ce nu vrem sa introducem in parametri vom pune \"\" \r\n        for (uint i = 0; i < ReportedHashProducts.length; i++) {\r\n            if(CompareStrings(ReportedHashProducts[i],_unique_hash))\r\n                return true;\r\n        }\r\n        \r\n        return false;\r\n    }\r\n    \r\n    function SearchProduct(string memory _name, string memory _brand, string memory _country, string memory _unique_hash) public view returns (bool, Product[] memory) //Sorina\r\n    {\r\n        Product[] memory id = new Product[](OProducts.length);  \r\n        bool finalState = false;\r\n        // pentru ce nu vrem sa introducem in parametri vom pune \"\" \r\n        for (uint i = 0; i < OProducts.length; i++) {\r\n            if (CompareStrings(_name, \"\") || CompareStrings( _name, OProducts[i].name)) {\r\n                if (CompareStrings(_brand, \"\") || CompareStrings(_brand, OProducts[i].brand)) {\r\n                    if (CompareStrings(_country, \"\") || CompareStrings(_country, OProducts[i].country)) {\r\n                        if (CompareStrings(_unique_hash, \"\") || CompareStrings(_unique_hash, OProducts[i].unique_hash)) {\r\n                            \r\n                            Product storage aux = OProducts[i]; \r\n                            id[i] = aux; \r\n                            finalState = true;\r\n                        }\r\n                    }\r\n                }\r\n            }\r\n        }\r\n        \r\n        return (finalState,id);\r\n    } \r\n    function BuyProduct(string memory _unique_hash) public payable returns (bool) //Sorina\r\n    {\r\n        // caut produsul in OProducts\r\n        for (uint i = 0; i < OProducts.length; i++) {\r\n            if (CompareStrings(_unique_hash, OProducts[i].unique_hash))\r\n            {\r\n                if (OProducts[i].pieces > 0) { \r\n                    if (msg.value > msg.sender.balance) {revert();}\r\n                    // scad numar de bucati \r\n                    OProducts[i].pieces = OProducts[i].pieces - 1;\r\n                    \r\n                    // incasez banii\r\n                    //address payable _owner_hash_payable = address(uint160(_owner_hash));\r\n                    _owner_hash.transfer(OProducts[i].price);\r\n\r\n                    // adaug tranzactia in bought products\r\n                    UniqueNumberOrders++;\r\n                    BoughtProduct memory nBoughtProduct = BoughtProduct(_unique_hash, msg.sender, UniqueNumberOrders);    \r\n                    BoughtProducts.push(nBoughtProduct); \r\n                    \r\n                    return true;\r\n                }\r\n            }\r\n        }\r\n        \r\n        return false;\r\n    }\r\n    \r\n    function SearchPastOrders(address payable _buyer_hash) public view returns (bool,BoughtProduct[] memory) // Sorina\r\n    { \r\n        bool state = false;\r\n        BoughtProduct[] memory id = new BoughtProduct[](BoughtProducts.length);  \r\n        for (uint i = 0; i < BoughtProducts.length; i++) {\r\n            if (_buyer_hash == BoughtProducts[i].buyer_hash) \r\n            {\r\n                BoughtProduct storage aux = BoughtProducts[i]; \r\n                id[i] = aux; \r\n                state = true;\r\n            }\r\n        }\r\n        \r\n        return (state,id);\r\n    }\r\n    \r\n    function ReportProduct(string memory _unique_hash) public returns (bool) //Sorina\r\n    {\r\n        for (uint i = 0; i < OProducts.length; i++) {\r\n            if (CompareStrings(_unique_hash, OProducts[i].unique_hash)) {\r\n                return false;\r\n            }\r\n        }\r\n        \r\n        for (uint i = 0; i < ReportedHashProducts.length; i++) {\r\n            if (CompareStrings(_unique_hash, ReportedHashProducts[i])) {\r\n                return false;\r\n            }\r\n        }\r\n        \r\n        ReportedHashProducts.push(_unique_hash);\r\n        return true;\r\n    }\r\n    \r\n}",
  "sourcePath": "D:/WORK/Faculty/3rd-year/blockchain/Blockchain-Project/contracts/Products.sol",
  "compiler": {
    "name": "solc",
    "version": "0.5.16+commit.9c3226ce.Emscripten.clang"
  },
  "schemaVersion": "3.4.0",
  "updatedAt": "2021-04-24T21:29:44.610Z",
  "networkType": "ethereum",
  "devdoc": {
    "methods": {}
  },
  "userdoc": {
    "methods": {}
  }
}